{"abi":[{"type":"function","name":"commitWord","inputs":[{"name":"gameId","type":"uint256","internalType":"uint256"},{"name":"commitment","type":"bytes32","internalType":"bytes32"}],"outputs":[],"stateMutability":"nonpayable"},{"type":"function","name":"createGame","inputs":[],"outputs":[{"name":"","type":"uint256","internalType":"uint256"}],"stateMutability":"nonpayable"},{"type":"function","name":"games","inputs":[{"name":"","type":"uint256","internalType":"uint256"}],"outputs":[{"name":"host","type":"address","internalType":"address"},{"name":"wordCommitment","type":"bytes32","internalType":"bytes32"},{"name":"createdAt","type":"uint256","internalType":"uint256"},{"name":"isActive","type":"bool","internalType":"bool"}],"stateMutability":"view"},{"type":"function","name":"getGame","inputs":[{"name":"gameId","type":"uint256","internalType":"uint256"}],"outputs":[{"name":"host","type":"address","internalType":"address"},{"name":"wordCommitment","type":"bytes32","internalType":"bytes32"},{"name":"createdAt","type":"uint256","internalType":"uint256"},{"name":"isActive","type":"bool","internalType":"bool"}],"stateMutability":"view"},{"type":"function","name":"getPlayerWins","inputs":[{"name":"player","type":"address","internalType":"address"}],"outputs":[{"name":"","type":"uint256","internalType":"uint256"}],"stateMutability":"view"},{"type":"function","name":"joinGame","inputs":[{"name":"gameId","type":"uint256","internalType":"uint256"}],"outputs":[],"stateMutability":"nonpayable"},{"type":"function","name":"nextGameId","inputs":[],"outputs":[{"name":"","type":"uint256","internalType":"uint256"}],"stateMutability":"view"},{"type":"function","name":"revealAndScore","inputs":[{"name":"gameId","type":"uint256","internalType":"uint256"},{"name":"word","type":"string","internalType":"string"},{"name":"salt","type":"string","internalType":"string"},{"name":"winners","type":"address[]","internalType":"address[]"},{"name":"scores","type":"uint256[]","internalType":"uint256[]"}],"outputs":[],"stateMutability":"nonpayable"},{"type":"function","name":"totalWins","inputs":[{"name":"","type":"address","internalType":"address"}],"outputs":[{"name":"","type":"uint256","internalType":"uint256"}],"stateMutability":"view"},{"type":"event","name":"GameCompleted","inputs":[{"name":"gameId","type":"uint256","indexed":true,"internalType":"uint256"},{"name":"host","type":"address","indexed":true,"internalType":"address"},{"name":"word","type":"string","indexed":false,"internalType":"string"},{"name":"winners","type":"address[]","indexed":false,"internalType":"address[]"},{"name":"scores","type":"uint256[]","indexed":false,"internalType":"uint256[]"},{"name":"timestamp","type":"uint256","indexed":false,"internalType":"uint256"}],"anonymous":false},{"type":"event","name":"GameCreated","inputs":[{"name":"gameId","type":"uint256","indexed":true,"internalType":"uint256"},{"name":"host","type":"address","indexed":true,"internalType":"address"},{"name":"timestamp","type":"uint256","indexed":false,"internalType":"uint256"}],"anonymous":false},{"type":"event","name":"PlayerJoined","inputs":[{"name":"gameId","type":"uint256","indexed":true,"internalType":"uint256"},{"name":"player","type":"address","indexed":true,"internalType":"address"},{"name":"timestamp","type":"uint256","indexed":false,"internalType":"uint256"}],"anonymous":false},{"type":"event","name":"WordCommitted","inputs":[{"name":"gameId","type":"uint256","indexed":true,"internalType":"uint256"},{"name":"commitment","type":"bytes32","indexed":false,"internalType":"bytes32"},{"name":"timestamp","type":"uint256","indexed":false,"internalType":"uint256"}],"anonymous":false},{"type":"error","name":"GameNotActive","inputs":[]},{"type":"error","name":"InvalidReveal","inputs":[]},{"type":"error","name":"LengthMismatch","inputs":[]},{"type":"error","name":"OnlyHost","inputs":[]}],"bytecode":{"object":"0x50564d0000324f000000000000010700c1b000c00080038080612d4ecb1fbedf034c818f3dc9a0b4f3397f38b31806259203c2e2af9ffcc96c5d6636e020fcaa51731585f1f4b0055975753061833e79e43fddb57a35f62aaaca6f59ffe967fb7dcd28b1ed7e5ca64d0c3c4bf53a55ac1abdd880245a6233b7980fb561b954b1357a3232071958c62cc76e975321405e7db461da20ae4655190480c40c000000000e0000001c0000002a000000300000003d00000048000000570000005a00000065000000770000008200000063616c6c5f646174615f636f707963616c6c5f646174615f6c6f616463616c6c5f646174615f73697a6563616c6c65726465706f7369745f6576656e746765745f73746f72616765686173685f6b656363616b5f3235366e6f777365616c5f72657475726e7365745f696d6d757461626c655f646174617365745f73746f7261676576616c75655f7472616e73666572726564051102bb820463616c6cbb8f066465706c6f7906c0ba4d811e02c015431a001f004a00b400e100ed00340150015801ac01b701bc01680284028e029d02ac02b502be02e702f3023c03580362037103be03d4032d0438043d0459048804a904b304b804c304c804d404080572057d0582059a05c605e205e705ec05f1050006090621068c06b806c106ed06f6068e07ee0700080b08100828086808890894089a08a708ad08ba08d3083a094e095b0961097a09b309dc09e209e809ee09ff09090a1a0a660a780ae90a410bce0bdb0be50b500c5d0c670cc60cd70cad0d670e740e7a0eae0efc0e390f460f840f07106810cd1017114311601166116c117c118d119711a511cb110212101283129112f51242136f13a613b313401455145f14dd14ea144c1559155f159015c115cf150c1619161f163b1645166a167a168016e716351745174b17af17f217021808186b18b518c618cc1827198919ae19b919bf19cc19d219df191e1a281a7c1aa11aac1ab21abf1ac51ace1aef1a541b611b671b881bd01b021c0d1c131c241c2e1c3b1c7b1cf71c041d891da51daf1d361e401e581ebb1e181f251f5b1f781f831f931fa41fae1fce1fdb1f4520aa204a2197217022302387233f24e324c925db25ed2503267826a126ac26bc26cd26d726fb2674289e28b528c528d628e028fd2837296c29ae29762a9f2ab62ac62a142b4d2b5e2bcb2b472c782c142d962d052e762f8a30e430cf3127329233da331c3448345334623423358435c9354c36f436fa366f3784388a38ff38353a863a8c3aa33ac73a2d3b413b473b5e3b823b8f3b9d3b943edd3f974159429511f07b10087b158475010a02013d0780000251050750100209501004d3009511a07b10587b15507b16489515608411e06416491618491610490680003307406468491608501006733f4916384916304916284916208367200a0b01826730826838826928826a20d49808d4a707d4870751071633089000028388330701330933000c0a0828689517e08477e064714917184917104917084907029518e08488e064814918184918104918084908015010087f40390884000256187f0c2003840002800001330790000283778000330833090a28953d33078000330850100a044283783307330933000c0a0801951108f8951700077b70f0007b75e8007b76e0009515f807951100f8951178fa8411e064169569f8104929600449295804492948048000330740956840154929500450100e893e33078000027b6778013907800002330804ae8706285432501210fa3b33083300120a01018267700181771c5247e2b0e9960a28e8195147cc7bf7a2df075247992d62b00a288e145247b0bb35b10a28c41351476ce94ab7a3025147a055aaef6e065147905b7a11d8035147825537410a28b30c501214f6393300160a0b330218281b3a501218183a51070628c9318267780181775617430728bc319517e08477e07b676001647183773308040a018268600182877b6778018287087b6770018287107b6768018287187b6760019517e08477e07b67580164719517e08477e07b675001647183773308240a01826a500182a71882a81082a90882aa826b58017bb7187bb8107bb9087bba82676001956900057b9718826768017b9710826770017b970895680005826778017b97330750101a553d4926f8044926f0044926e8043307209568e0044926e00450101c393d330840330750101e57409518e08488e07b68500150122099393300220a06826a500133022428743a826a50015012246d3a9567c004501026f23d8267c8047b6750018267c0047b6748018067d0047b67400133079000037b67380183773300280a0301956c000182c93850122a673a82c940d3980882c948d39707d4870782c850d3a808d48707510706283d1b82677801956900047b9760826770017b9768826768017b977095686004826760017b9778330750102c813c492658044926500449264804330720956840044926400450102e653c3308403307501030833f9518e08488e07b685001501232c5380a06826a500182a782a80882a91082aa186f776f886f996faa95ab03d8ab0ac8a90cd89c09daaa09c88909d88908c887079518e08488e064817b8c087b8b7b89107b871895672004501034f23c7c672004510706286b1b95672003330840501036ae3a956b000382ba3882b83082b92882b720d49a0ad48709d4a909989920d4a808978820d4980851080628e0254926100349260803492600031409000000007109a300956800037b6918037b67780133008a0128933b501238753733003a0a0b33023c289a3750123c973751070628482f82677801817756172307283b2f9567001450103e2732956af81082a7080382a8100380a91803492a000395ab00027bb9f8007bb8f0009568e0137bb7e8003307501040353b9569f8104929e0024929d8024929c802013307209568c0134929d002501042143b3308403307501044323e50124607373300480a0633024a282d3850124a2a388377a003c8670750104cdc3b9567f810957900028298c000956700017b78788298b8007b78708298b0007b78688298a8007b78609567801333084050104e7a39956af81095ac000282c7a00082c8980082c9900082cb8800d49707d48b09d47909989920d48707977720d4970751070628a4249569000182976095ac00027bc7688297687bc7708297707bc778956860138297787bc7800064b77b6b780133007801284e3a50125030363300520a0b330254285536501254523651070628032e8267780181775617230728f62d50125663380a01826a780182a782a80882a91082aa187b6af8027b69f0027b68e8029568e0027b67e0023307501058f7394926d8024926d0024926c8023307209568c0024926c00250105adb3950125ce03750105ef93c501260ce353300620a06826a7801330264280e38826a78015012640738826870017b8a187b89107b8b087b879567a0025010668f3a8267a0027b6758018267a8027b6750018067b0027b6748018268700182877b676801828b187b6b78018289087b696001828c107b6c7001957701887801c88909d49708888801c88c0ad8ca08c88b0b9518e08488e064817b8a107b89087b877b8b1895678002501068243a826780027b674001826788027b673801826790027b673001826798027b6728018268680195870250126ac3359567600250106cef39826760027b672001826768027b671801826770027b671001826778027b6708018268680195870350126e8e3595674002501070ba397c674002956800017b8780004926980149269001492688018287087b87b8008287107b87b0008287187b87a8008287207b87a0008287287b87d8008287307b87d0008287387b87c8008287407b87c0004926f8018287487b87f0008287507b87e8008287587b87e000492618024926100249260002800095672002956800029569e001956ac001956ba001956c800149260802501072d92c9568000282872082623802828928828a30957880d87807c8790b95bbffd39b0cd89b09dac70995a7ffc87909d8790788aa01c9a20ac8a707d4980ad4b707d47a0a98aa20d49707977720d4a70751070628fe21330780007b687801501074f73a83788169780133070a08281615501276a2333300780a0b33027a28c73350127ac43351070628752b8267780181775617230728682b50127cd5350a01826778018279827808827a10827b189567f8107b6b5801957c00047bcb407b6a60017bca387b6868017bc830956820157b6970017bc928330750107e55379569f8104929200449291804492910043307209568001549290804502080003537330840330750208200523a502284002633330086000a06330288002845335022880042338377e004c8670750208a00f7379567f8107c77e8037b6778019567c01433084050208c00b0359569f810959700038278e000827bd800827cd000827ac80082677801510706281c14d4ba07d4c808d48707987720d4b808978820d4870751070628cf2049293803492930031407000000007109a3007b974003956820144929280364a77b6a500150208e0084363308048267500133008c01289b39502290005532330092000a0b3302940028773250229400743251070628242a8267780181775617230728172a5022960084340a01826a780182a782a80882a91082aa18956bff0795bbf90095bc00027bca407bc9387bc8309568ff07958821037bc7283307502098000b369569ff079599f9004929200249291802492910023307209568ff07958801034929080250209a00e23550229c00e63350209e00fe385022a000d2313300a2000a06826a78013302a400287e33826a78015022a40077339567ff079577e1023308405020a60069349567ff079577f900827800027b686001957c000182c9f8007b69580182cbf0007b6b680182cae8007b6a78017bc8e0007bc9d8007bcbd00064789567ff079577c1027b8ac8015020a80067309567ff079577a102826870015020aa003936956a000182a76082a868d4870782a95882a878d49808d47808988820d49707977720d48707510706283c1f9567ff079577f900807ab801957b000182b9b00082b8a8004927a0017b6838017bb888007b6930017bb990009568ff07958881027b6a28017bba9800826778015020ac00d534826870018287828b18828908828c107b6748019577018878017b694001c88909d49708888801c88c0a7b6c5001d8ca087b6b7001c88b0b9518e08488e064817b8a107b89087b877b8b189567ff07957761025020ae007035956b000182b76082b958d47909140a00000000010000001407e0ffffff0000000082b878d8780782b86894879497520706286a1e9567ff079577f9007b696001647982728001957c000182cb787b6a580182ca7082c868826778018377207b682001959c00017bc8487b6a18017bca507b6b10017bcb589568ff07958841027b6208017b9260015020b000f033826848019587025022b2006730957721025020b400cc34956a000182a96082a7589577c082a878d8780782a8689487949752070628da1d9569ff079599f90082924001959c000182cb3882ca3082c828826778018377407b6858017bc8087b6a00017bca107b6bf8007bcb189568ff07958801027b62f0007b9220015020b6006e33826848019587035022b800e52f9577e1015020ba004a341407a0ffffff0000000095690001829878d878078298689487829860948752070628541d956aff0795aaf90082a7e8008477ff008e797b69700182677801837760492ae000492ad800492ad0009568ff079588c1017ba9c8005020bc00f8329567ff079577a1013308405020be00ac319568ff079588f900828ac0007b6a78018289b8007b696801828bb0007b6b60018283a8007b63500149084918f882677001956c00107bc7e0f8956700104927e8f88267f0007b87208267f8007b8718826700017b8710826758017b8708826708017b8740826710017b8738826718017b8730826720017b8728491860826728017b8758826730017b8750826738017b87487b8a80007b89787b8b7064829567ff07957781019568ff07958861019569ff0795994101956aff0795aa2101956bff0795bb0101956cff0795cce1007b23685020c000bb2695680001828b60828950828778d4b707828a68d4a908d47808988820d4a707977720d4870751070628071c64a29568ff079588f90082879000828aa0007b6a700182838800828a9800d3b704d8b70cd89300da400cc92a08c9c804d8c8087b685801d82a0a826c780182687001c9c80cc9ac0c82685801c98c0cc9b707c90707c99308d4c707d4480ad47a0ad4470798aa20977720d4a70751070628941b64977b687801330074288c34514729d755720a283e255022c2003c2d3300c4000a0b3302c600285e2d5022c6005b2d510706280b258267780181775617030728fe249518e08488e064814918184918104918084908029567ff079577015020c800033295670010827718f895680010828810f895690010829908f8956a001082aa00f87b6750017b67d8077b6848017b68d0077b6940017b69c8079567e0079568c0077b6a38017b6ac0075020ca003f2b8269e007826ae807826bf007826cf8079517e08477e064714917184917104917084907029518e08488e064817b8c187b8b107b8a087b895020cc00fb319567a0073308405020ce003d2f956b000782b7b8007b67680182b8b0007b68600182baa8007b6a700182b9a0007b6978017bb798007bb890007bba8800956780077bb980005020d000492b33079000037b67580183777b6730010a0301956a000182a76882a870d4870782a96082a878d49808d47808988820d49707977720d48707510706281e1a8269580182970881981082996f77977a206f88988820d48a0a9877206f98978920d4970798882049267807956900077b98707b9768956860077b9a60826778015020d200b72f956b000182b76882b960d47909140a00000000010000001407e0ffffff0000000082b878d8780782b8709487949752070628a4198267780183772049265807492650074926480795684007492640077b6720017b6968017b6a60015020d400562f9517e08477e064717b67280183770a0701956a000182a96882a7609577c082a878d8780782a8709487949752070628461982672801827b827808827910827a1882677801837740956c00077bca387bc9307bc828956820077bcb207b6760015020d600f12e1408a0ffffff00000000956a000182a778d8870882a770947882a768947852080628ee18826778018377607b6718014926180749261007492608079568000749260007015020d800a72e826750017b67f806826748017b67f006826740017b67e8069568e006826738017b67e00633075020da007b2e4926d8064926d0064926c8063307209568c0064926c0065020dc005e2e5022de00622c5020e0007a319518e08488e07b6868015022e200bb2a3300e4000a06826a68013302e60028f02b826a68015022e600e92b9567a006826878015020e800de2c8267a0067b6778018267a8067b6768018067b0067b67280195678006826870015020ea00e62e806794068269980697772082682801d487079518e08488e064817b89187b8710826768017b8708826778017b87826770015020ec00322f95676006826820015020ee00732c8262600682636806826470068267700182787b6828018279187b697801827a087b6a6801827b107b6b7001958801888701c87a0cd4c80788770182607806c87b0ad8ba07c879099517e08477e064717b7a107b7c087b787b79189518e08488e064817b80187b84107b83087b825020f000b12e95674006826860015020f200f22b826240068263480682645006826c580682672801957802d87807826a6801c87a09d8a90ada770a82677001c87a0ad87a07826b7801c87b0b9517e08477e064717b7b187b7a107b79087b789518e08488e064817b8c187b84107b83087b825020f4003f2e9517e0847ce064c182682801958703d88708826a6801c88a09d8a90ada880a82687001c88a0ad88a08826b7801c8b8087b6c60017bc8187bca107bc9087bc795672006826818015020f600412b826730068268380682692806826a2006d49808d4a707d487078e777b67780195670006826860015020f800422d956b000682b70882b882b91082ba18848800ff826b7801d48b0b9518e08488e064817b8a187b89107b87087b8b826760015020fa008e2d9567e0053308405020fc00d02a956800058287f8007b6770018287f0007b6768018287e8007b6760018287e0007b6778019517e08477e064717b67280183770a0701956a000182a77082a860d4870782a878648b82a968d49808d47808988820d49707977720d4870751070628ca15826a280182a782a80882a91082aa187b6ad8057b69d0057b68c8059568c0057b67c00564b75020fe007e2b82673001330000010a03826958013302020128022a8269580150220201fb29d4780298aa206f99979820d4a80898992049267805826750017b679805826748017b679005826740017b678805826738017b6780053a0a4000023a0b4800023a0c5000023a075800027b6ab8057b6bb0057b6ca8057b67a0057b6970057b6868053308209569a005956a8005956b60057b6260058267780150200401212d95674005330840502006019929956b000582b75882b85082b94882ba40d49707d48a09d47909989920d48707977720d4970751070628ca1495690001829738956b00057bb7208297407bb7288297487bb730956820058297507bb73864a77b6a78013300780128752a50220801572633000a010a0b33020c0128792650220c01762651070628261e8267780181775617030728191e9518e08488e064814918184918104918084908029567401350200e01212b9568f81095890002829760956800017b87788297587b87708297507b87688297487b87609567201333084050201001c228956af81095ac0002502212010c28510706280a149569000182976095ac00027bc7088297687bc7108297707bc718956800138297787bc72064b77b6b78013300780128b529502214019725330016010a0b3302180128b92550221801b62551070628661d8267780181773308a300ac780628561d50221a01102733080433001c010a0101826870018287187b6700018287107b67e8008287087b67f00082877b67f80050221e01e126330824330020010a0133022201283526502222013226520b0628051d82ca826b780180b295ac04d8ac0ac8a90bd89b09daaa09c88909d88908c8870a9567f8104927a00149279801492790017b728801957800017b8ca8007b8bb0007b89b800647b9567c0129568a012956980127bbac001330024013302140228ba269568f810958900018297e0007b67c8008297d8007b67d0008297d0007b67c0008297c8007b67d800828700027b67b0008297f8007b67a8008297f0007b67a0008297e8007b67b800502226011626330844330028010a0133022a01286a2550222a016725520b06283a1c82ca826b780180b295ac04d8ac0ac8a90bd89b09daaa09c88909d88908c8870a9567f8104927200149271801492710017b720801957800017b8c287b8b307b8938647b9567401295682012956900127bba400133002c013302140228f2259568f810958900018297607b6780008297587b6788008297507b67788297487b679800829780007b67708297787b67688297707b67608297687b67900050222e015925330864330030010a013302320128ad2450223201aa24520b06287d1b82ca826b780180b295ac04d8ac0ac8a90bd89b09daaa09c88909d88908c8870a9567f8104927a00049279800492790007b7288007b7ca8007b7bb0007b79b800647b9567c0119568a011956980117bbac0003300340133021a022836259568f8108287e0007b6748018287d8007b6740018287d0007b6738018287c8007b673001828700017b6728018287f8007b6718018287f0007b6710018287e8007b67200150223601962433088400330038010a0133023a0128e92350223a01e623520b0628b91a82ca826b780180b295ac04d8ac0ac8a90bd89b09daaa09c88909d88908c8870a9567f8104917204917184917107b72087b7c287b7b307b7938647b9567401195682011956900117bba4033003c0133021a02287a249568f8108287607b67488287587b67508287507b67408287487b6758828780007b6760018287787b6750018287707b6758018287687b670801826700017b878267e8007b87f88267f0007b87f064899568e0108267f8007b97e8330750203e0135269569ff079599f9004929e0074929d8074929d0073307209568c0104929c8075020400110263308403307502042012d29502244010122330046010a06330248012824235022480121238377a000c8670750204a01d2269567ff079577f9008278b0077b6878018278a8077b6870018077b8077b67680133079000037b67e00083777b673833004c010a038269e00033024e01283a238269e00050224e013323956b000182b968d3980882b970d39707d4870782b878d3a808d4870752076a049569ff079599f9008267f800959a00077ba7488267f0007ba7508267e8007ba75895684010826700017ba76033075020500142259569ff079599f9004929400749293807492930073307209568201049292807502052011d253308403307502054013a28502256010e21330058010a0633025a01282d2150225a012a21c8670750205c01e3259567ff079577f9007c770807520773069567ff079577610333084050205e019423956aff0795aaf90095ac000282cb800082c87882c97082c768d49b0bd48709d4b909989920d4b808978820d498085208bf0e492a5802492a50021408000000007109a3007ba860029568ff0795884103492a48027b67780133008a01286d24502260014f20330062010a0b33026401287120502264016e20510706281e18826778018177561723072811189567ff079577c10050206601f91a956700108277c0f8956800108288c8f8956900108099d0f8956a0010492ab8f8956a00107ba9b0f8956900107b98a8f89568ff079588a100956900107b97a0f8330750206801ee2395670010492798f895670010492790f895680010492880f8013307209568ff079588810095690010492988f850206a01bc23330840330750206c01d92650226e01ad1f330070010a06826a78013302720128fc20826a780150227201f5209567ff0795776150207401762495670010827778f8956800017b877895670010827770f87b877095670010827768f87b876895670010827760f87b87609567ff0795774133084050207601082295670010827758f895680010828850f895690010829948f8956a001082aa40f8d49707d48a09d47909989920d48707977720d4970752072c0d95690001829760956800107b8720f8829768956800107b8728f8829770956800107b8730f89568ff07958821829778956900107b9738f864a77b6a780150207801c7223308208267780150207a01e225837833092033070a08019517e08477e064717b67380183777b6a50017b6b40017b6878017b6c48010a0701956c000182c75082ca40d4a70982c87882cb48d4b808d48909989920d4a808978820d498085208880c826a380182ac82a80882a91082aa18956bf8107bbac00395ba00037ba9b8007ba8b0009568a0147baca80050207c01352233079000037b677801837733007e010a03826978013302800128b2208269780150228001ab20d4780298aa206f99979820d4a8039899209568f81049286003826758017b878003826760017b877803826768017b877003826770017b8768033a0a0000023a0b0800023a0c1000023a071800027b8aa003958a00037bab98007bac90007ba788007ba9587b835003648733082095698014956a6014956b40147b7248038267500150208201c8233307330850208401a6248378330733090a082854159567a004330840502086012b20956b000482bab80082b8b00082b9a80082b7a000d49a0ad48709d4a909989920d4a808978820d4980852085b0b49269004492688044926800414090000000036921e00956880047b6998047b67780133008a01280d219567801033084050208801c81f956aff0795aaf90095ac000782cba00082c8980082c9900082c78800d49b0bd48709d4b909989920d4b808978820d498085208f00a492a7807492a700714080000000036921e007ba8800795686010492a68077b67780150208a01a6203308048267780150208c01c12383783307013309040a080182677801956900047b97826770017b9708826768017b971095680004826760017b9718330750208e0163204926f8034926f0034926e8033307209568e0034926e00350209001462033084033075020920163239518e08488e07b68500150229401a41c330096010a06826a50013302980128221d826a5001502298011b1dc878089517e08477e064717b79087b7a7b7b107b78188268580150209a0166219567c00333084050209c01a81e95680003828bd800828cd000828ac8008287c000d4ba09d4c708d49808988820d4c909979920d498085208d8097b6b4001826b580182b282b80882b9107b6a480182ba18956b00037bbab8007bb9b0007bb8a8009568a0037b62a0037b6750017b6c580150209e01791f9517e08477e064717b67380183770a0701956a000182ac5082a74082a858d487071408e0ffffff00000000d88c0882a9489498947851086209826738018279827808827a10827b1883c7207b6b98037b6a90037b688803956880037b6980035020a001141f956b000182b760956c00037bc75882b7687bc75082b7707bc7483a076000023a086800023a0970000282ba787bca407bc7787bc8707bc9683a0778000233084095696003956a40037bc76082b7503300a201951160ff7b1098007b1590007b1688009515a0008411e082ab7b1b3882ab087b1b3082ab107b1b2882aa187b1a20829a7b1a18829a087b1a10829a107b1a088299187b1933064033003a0228992128ecfc8267200182680801d387078268180182695001d39808d487078268100182695801d3980882692801826a6001d3a909d49808d487077b6778019567ff079577e1073308405020a401ec1c9569ff079599f90082900007829bf8068294e8068292f006d4b407d4020c82687801520810087b6778018263d8008269d000d493078268c800826ac000d4a808d48707987720d49808978820d487075207f6078267b8008269a800d497078268b000826aa000d4a808d48707987720d49808978820d487075207cd077b6c5001954720d8470ac8a208d82809daaa09c8b909d8b90ac8a00cd4970ad4c808d48a0a98aa20d49808978820d4a8085208980783337b63d0008168b8007b68d8007b6708017b6470017b6b68017b6060017b6258015020a601762083778268d8008269d0000a0182695801826a6801826770018262b800c87202d872078268a000c89808c8780bd39b08d89b09da87098267a800c8a707c8970cd87c08d8a7078269b000826a6001c8a909c89707c88703952a20d82a07c87b08d8b809da7709c8c909d8c907c83707d48707d49a08d47808d49707988820977720d487075207e9067b63287b62307b6cc0007b6bc8009567ff079577f9004927c0064927b8064927b0069568ff079588a1074927a8067b6a2064a75020a8018e1c8267980082698800d4970782688000826a78d4a808d48707987720d49808978820d4870752078806826a6882689000d4a807826970826b60d49b0cd4c707987720d4ac0c97cc20d4c707520762068267205020aa015f1f837781689000816998000a01826730826b9000c87b0bd87b078269c800826860c89808c8780cd39c08d89c09da8709826ac000826768c8a707c89708d87802d8a707826928826a70c8a909c89707c8720295b7207b6bc800d8b70bc8bc097b6cc000d8c90adabb0ac88a0a7b689800d88a087b629000c82808d4a70bd49808d48b0b98bb20d4a808978820d4b8085208c7059569ff079599f9004929a00649299806492990069568ff0795888107492988065020ac017f1b95690001829850829778d48707987720829c68d4c808978820d48707520781058263c80082677001d8730482675801826ac000d37a08d87a096470da8409826b9800c9cb08d89802d8cb0bc8b202826b900082676001c97b0bc92b0b7b6b7801c998097b695001c90a08c948047b64c00082677001c9730a7b6ac8009562ff079522f900952c00067bca687b2470067bc9789568ff07958861077bcb80005020ae01db1a8268c80095873fd88708826cc000c88c098477e082627001c87202d87207826a5801c87a0ac8a904d3940ad8940bdaa70bd8c907da8807956c000182c850c88707d8870882c968c87909c89b0bd87907d89b0982ca60c8a80882ca78c8a808c88707c8970c8ec78eb8dbc708d4cb078e49db78095209910e82677001d8720782695801d39408d89409da870982676801d87b03826a6001d3ac08d8ac0ada830ad3b707d48707da790a520a5c0e9569ff079599f9007b6278017b9248067b6468017b9450067b6b60017b9b58063307409568ff07958841077b6c58017b9c60065020b001f5199567ff0795772107826870015020b201a818956aff0795aaf90095ac00065022b401ee175207ef0364ba8267080164b87b6a70015020b601e31c9518e08489e07b695001649183778168700183990a06826a500182a71882a80882a91082aa6f777b6770016f877b6750016f977b6708016fa77b67c8009569ff079599f90082670001959a00067ba7208267e8007ba7188267f0007ba7109568ff07958801078267f8007ba70833075020b80146199569ff079599f900492900064929f8054929f0053307209568ff079588e1064929e8055020ba011d1933084033075020bc013a1c9518e08488e07b68c0005022be017b153300c0010a06826ac0003302c20128f915826ac0005022c201f215c887079518e08488e064817b89087b8a7b8b107b87189567ff079577c1065020c401b619956aff0795aaf90095ab000582b7e00082b8d00082b9c80082bad800826bc800d3b707956c000182cb08d3b808d4870782c850d3a80882ca70d3a909d49808d487075207a002330333003304330c140700000000010000007b6708010182672001d8730782691001d39008d89009da8709826b1801d8b407826a2801d3ac08d8ac0ada870ad3b407d48707da790a510ab10298473b7b6c580197c905d4790298373b970805d4780a7b63700197370582683001c87808d8780b82673801c8a707c8b707d3a709d8a70ada9b0a7b606801980b3b7b646001974c05d4cb0b826c4001c8bc0cd8bc0b82694801c82909c8b909c8ca0ad8ca0bc8b909951be084bce064c1d4a80bd49707d47b0b98bb20d4a707977720d4b7075207ca0183c783887b6c78010a0101826b780182b81082b71882690801d38909d47909988a2088aa01947a939a510a490b82b90882ba956bff0795bbf90095bc00037bca88007bc990007bc898009568ff07958881047bc7a00033075020c6014a17956aff0795aaf900492a8003492a7803492a70033307209568ff0795886104492a6803015020c80120179517e08477e07b677801647133084033075020ca01311a9518e08488e07b6850015022cc0172133300ce010a06826a50013302d001283815826a50015022d0013115826878017b8a187b89107b8b087b879567ff07957741045020d201b417956bff0795bbf90095bc000382c94882c75082c85882ca607bca207bc8187bc7109567ff07957721049568ff07958801047bc9085020d40104119568ff079588f900958c000382c72882c93082ca3882cb409518e08488e064817b8b187b8a107b89087b87826778015020d601c817956b000182b758956aff0795aaf90095ac00027bc7e00082b7607bc7d80082b7687bc7d0009567ff079577e1039568ff079588c10382b9707bc9c8005020d8018d109567ff079577f900827c00038274f8028270f0028273e8022892fdd4c707987720d4bc08978820d487075107d40900956b000182b77882b960d4970782b86882ba58d4a808d48707987720d49808978820d487075207da9569ff079599f9004929b8054929b00514070000000027d1a69e7b97c0059568ff079588a1064929a8058267780133008a012881159569ff079599f9008267f800959a00057ba788008267f0007ba790008267e8007ba798009568ff0795888106826700017ba7a00033075020da0148159569ff079599f9004929800549297805492970053307209568ff0795886106492968055020dc011f159517e08477e07b677801647133084033075020de0130189518e08488e07b6870015022e00171110a06826a700182a782a80882a91082aa186f776f886f996faa95ab03d8ab0ac8a90cd89c09daaa09c88909d88908c88707826878017b8b7b8c087b89107b87189567ff07957741065020e2019d15956aff0795aaf90095ab000582b75082b95882b84882ba60848b00ff9518e08488e064817b8a187b89107b87087b8b826778015020e401e7159567ff07957721063308405020e60125139568ff079588f900958b000582b74082b93882ba3082b8287b6788007b6a9000d4a7077b689800d49808d478089888207b698000d49707977720d48707520741fe9569ff079599f9004929200549291805492910059568ff0795880106492908058000826798005020e801f3138267880082688000d47809140700000000010000007b677001140780ffffff0000000082689800d878078268900094877b69780194975107dbfd82679800837780009569ff079599f9008268b800959a00047ba8e8008268a0007ba8f0008268a8007ba8f8009568ff079588e105826ab0007b9a00055020ea01771382677001957760ff82689800d8780782689000948782687801948751077afd826798008377a0008268d8005020ec016e1683778268d8008269d0000a018267b80082689800c87802d882088269a00082679000c87909c88909d3790ad8790bdaa80b8268a80082678000c87808c88b0bd88b0ad87808826cb00082678800c87c0cc8c808c8a808d4b808140760ffffff000000007b677801d8720a949a948a510af6fc8327a0009569ff079599f9004929e0044929d8044929d0049568ff079588c1054929c8045020ee01aa128267b80095771f1408e0ffffff01000000d28707826a9800c87a087b686801d8a80882699000c8890b7b6b7001d89b09da880982688000c889097b696001d8890882698800c898087b6858019578a000d8780983a720956aff0795aaf900492ac00495ab00047bb8a8007bb9b00094999568ff079588a1057bb9b8005020f0012812956b000182b76082b858d4870782ba6864a982b878d88a0882ba7094a89478510827fc1407ffffffff000000007b67b0008397a0009569ff079599f90082682001959b00047bb88800826810017bb89000826818017bb898009568ff0795888105826a28017bbaa0005020f201b91133043302330c3303956a000182a8689587c0007ba778d8870782a870c878097ba968d88908da770882a760c88700d8700782a858c887077ba770140700000000010000007b67b8000182672001d8740782691001d39208d89209da8709826b1801d8bc07826a2801d3a308d8a30ada870ad3bc07d48707da790a640b640782607801d470077b6750018267700182696801d479087b6858017b6b6001510a79017b6cc0007b63c8007b62d0007b64d8009517e0847ce064c182694001826b3001d49b0782684801826a3801d4a808d48707987720d49808978820d487075207fafa83c783b87b6c08010a0101826c080182cb1082c8188269b800d3b909d4890998ba2088aa01948a939a510a7904956a000182a75882a850d4780898882082a960d47909979920d4980882a7785208aafa82c80882c9826ab000d2ab0b8488ff8499ff956aff0795aaf900492ac00395ac00037bc9a8007bc8b0009568ff079588a1047bcbb8007b6778015020f4014810826878019587207b675801d8870982676801c89700d8700ada990a82676001c8a709d8790a82677001c8a7077b67700182673001957a20d87a0b82673801c8b70cd87c07dabb0782684001c88707d8870b82684801c8b8087b6848018264d800954401884b018262d000c8b202d4240b88bb018268c000c88b0bd88b088263c800c88303826858017b6878017b6068016490956800017b8a307b8c387b874064bc2837fe826c9800d8c00a7b6a4801647382689000d389026497d88909da2a09826a8000c9ab02d8ab0a826b8800c9b30bc9ab0bd8920ac9ab03c9920bc9870982674801c97909c9c00a83c740956cff0795ccf90095c800047b8a687b89707b8b789568ff07958861057bc380045020f601340f956a000182a85882a750d4870798772082a960d49808978820d48707520736f99567ff079577f90082682001957a00047ba848826810017ba850826818017ba8589568ff0795884105826928017ba960826778015020f801da0e1407ffffffffffffff0782692801d3970782681801e1870798983b8e88937852088502826758826950d49707826848826a40d4a808d48707987720d49808978820d487075207b4f8956b000182b72082b918d4970782b82882ba10d4a808d4870798771bd49808978825d4870752078bf8956a000182a77082a860d487071408e0ffffff0000000082a978d8890882a96894989478510863f88269200198973b826a100197a805d487077b67400198a73b826a180197a805d487077b67480198a73b82682801978805d487077b6750019798057b6858018167587b673801826778018377205020fa011711837781685801826938010a9517e08477e07b673801647183770a07826738018279827808827a10827b1882679800837760956cff0795ccf9007bcb400495cb00047bba387bb8309568ff07958821057bb9285020fc01970d8267380a0301826b5801826c9800d8cb08826a900082674001d3a709d8a702da9802c9a709c98908c9cb0a82637801c8a303d8a30b826a6801c88a0ac8ba0ad38a0cd88a08dacb088269800082674801c9970bc92b0cd82b02d8970b8267880082695001c97907c9b70782697001c89707c92707826b6001c8cb0bd8cb0cc8c707c88b0cd8bc08c88707953820d83809c89a0bd8ab0ada990ac8ca0ad8ca09c89707d4b707d4a809d47909d4a707989920977720d497075207fef6826ae00082a70881a91082aa6f7b97b7206f99989920d4790298bb206faa97a920d4b90998aa203a0b2000029563ff079533f9008267e8007b37f8038267f0007b37f0038267f8007b37e8037b3b20043a0b2800023a0c3000023a073800024923e0037b3b1804953b00047bbc107bb7087b3ad803826700017bb77b39d0039569ff0795990105956aff0795aae104956bff0795bbc1047b32c803826798003300820128730e330733085020fe01540f837833070133090a08013308900002838833070133090a0828f24929d8064929d006140700000000383a63ff7b97e0069568ff079588c1074929c80664477b64700150200002e40b3308048267700133008c0128fb0e9567ff079577f9004927b8024927b0024927a8026479140700000000717b484e9568ff079588a1037b97c002330750200202a20b9568ff079588f9004928a00249289802492888024164893307049568ff07958881034929900250200402760b330824330750200602930e8378330701330924330008020a08019511c0fe7b1038017b1530017b162801951540018411f082831082841882820882867b1290007b148000d442087b169800d43606d486069866207b138800d43808978820d468087b17485208ce0182c7187b172082c7107b171082c7087b171882c77b170882b7187b174082b7107b173882b7087b173082b77b172882a7187b177082a7107b176882a7087b176082a77b17588297108298088299977720987720492118017b1900017b180801951800017b17100182169800646750200a029b0a8217880082198000d47909140700000000010000007b17501407e0ffffff00000000d876078218900094877b1978949751072701821698008367208218587b18e0008218607b18e8008218687b18f0009518e0008219707b19f80050200c023a0a8217509577c0d8760782189000948782187894875107e200821698008367408218287b18c0008218307b18c8008218387b18d0009518c0008219407b19d80050200e02f5091407a0ffffff00000000d87607821890009487821878948751079900821710821808d48707821820821918d49808d487078e78821a980095a780007b1778d8a70782199000c8790b7b1b70d89b09da770982178800c89706d8760782198000c897077b17900083a7604921b8004921b0007b18a0009518a0004921a800502010027209821748821890007b78187b76108218707b78088218787b789551c0fe821038018215300182162801951140013200009511c07b10387b15307b16289515408411e0647683173308040a010182171082181814090000000001000000d37909d48909987a2088aa01948a939a510a248219821a087b697b6a087b67107b68189551c08210388215308216289511403200330890000283883307013309330012020a083302140228ad0650221402aa067b6c58d8c402c82b0c7b6338d83403d3ac047b6a40d8ac0ada430a7b6b50d8bc0bda220b828010828418829318829210c80b0bd80b08c84808d33809d93808d82b0cda9c08d32b0bd4b909db980a510a14017b63207b62287b67309517e08479e06491826758d407077b641082685050221602d4065207ec0083978168587b69080a0101826908829018829710829c087b6748d4070788c80194785108ce008298826758957b20d87b04826a50c84a037b68c8b808d8b8097b6c08c8c307c89707d3370cd83702dac902826940d3970cd87907826938d88909dbc709d8a307da4407826818c8780ad88a08826410c88404826748c8a707d8a70c7b6058c80408c8c808c87202d87207c88707826c20d3c708d87c07826028d8200cdb870cd30207d48707db7c0952094982673082687b78207b7b8268087b78287b73088268487b78307b7a108268587b78387b7418955180821078821570821668951180003200003308900002280f3308900002280833089000020183883307013309330018020a0833021a02281d0550221a021a057b6c50d8c402c82b0c7b6330d83403d3ac047b6a38d8ac0ada430a7b6b58d8bc0bda220b828010828418829318829210c80b0bd80b08c84808d33809d93808d82b0cda9c08d32b0bd4b909db980a510a3b017b63207b62287b67409517e08479e06491826750d407077b641082685850221c0244055207130183978168507b69080a0101826908829018829710829b087b6748d4070788b80194785108f500829a98a73b97b805d47808826750957420d874037b63826758c87303c883097b6a0897a805c84808d84802c82909d3390cd8390adac20a826738d3790cd89709826730d88708dbc90882674898793b7b6050970c05d49c0c7b6b3898b93b977705d47909826758d87307826bdabb07826b18c8b707d8b70b826210c8b202c87909c82c0cd8790bc8cb0bc89a0ad89a09c8b909826c20d3c90bd89c00826928d8a90cdbb00cd3a909d4b909db9c0852084a8268408269087b89207b848269387b89287b83088269487b89307b87108267507b87387b8218955180821078821570821668951180003200003308900002280f330890000228083308900002018388330701330933001e020a08018289828218828a08828c10959b0188b901c8a909d49b0a88aa01c8ca0ad8ca0cc82c0cd4c902d4ab08d428085108107b7b7b79087b7a107b7c1832009511b07b10487b15409515508411f050222002a0035020220232054911184911104901113307046418491108502024021b05390884000256183f0b2003840002400133089000028388330701330924330026020a08019511907b10687b15609515708411f0827a1882791082738277088eab8e9cdbab0c8e72883b8085bb01db720bd4a908db8c0b520b4295388000d8380bc8b70cd87c07dabb07c89707d89709c8a9097b18407b1c487b1750330740c871087b1958502028029104955190821068821560951170320050222a02e50250202c027704491118491110490141330704641849110850202e026004390884000256183f0b2003840002400133089000028388330701330924330030020a08019511f87b1033075020320277c49511f87b103307015020340269c49517e08477e07b677001647133084917184917104917084907837732029518e08488e07b6878016481837783893308403202826a700182a71082a81882a90882aad49808d4a707d487073202826a780182a782a80882a91082aa186f776f886f996faa95ab03d8ab0ac8a90cd89c09daaa09c88909d88908c887079518e08488e064817b8c087b8b7b89107b87183307001032026481837783893308403202d88708826a4001c88a09d8a90ada880a82685001c88a0ad88a08826b7001c88b0b9518e08488e064817b8b187b8a107b89087b879567ff073202d88708826a6001c88a09d8a90ada880a82687001c88a0ad88a08826b7801c88b0b9518e08488e064817b8b187b8a107b89087b873202826c700182c71882c81082c908d4780a889b0194ab320282a782a80882a91082aa186f776f886f996faa95aa0188ab01c8b909d49a0b88bb01c88b0bd88b083202826a780182a71882a81082a90882aa6f776f8b6f996faa9518e08488e064817b8a187b89107b8b087b8733070010320282a71882a81082a90882aa6f776f8b6f996faa9518e08488e064817b8a187b89107b8b087b8732029517e08477e07b67700164718377320282970882988199106f77987a206f88978b20d4ba0a9777206f99989920d49707988820320282a71882a81082a90882aa6f776f886f996faa826b70017bba187bb9107bb8087bb732029511807b10787b15707b1668951580008411e06416828c829a08828b08829395c41f32029517e08477e07b67700164713308403307320282c74082c83882c93082cb28d49707d48b09d47909989920d48707977720d4970732029517e08477e07b67780164718377330804320282a71882a81082a90882aa6f776f8b6f996faa3202491130491128491120140700000000717b484e9518207b173833073202d44808d487079877207b6018d40808978820d48707320282970881981082996f7a97a7206f8898882032023908880002510869c23307b0000383770a09285cc29511f07b10087b156489647533082064975020360252047c78017c797c7a027c7b03978808d4980897aa1097bb18d4ba0ad4a8087c79057c7a047c7b067c7c07979908d4a90997bb1097cc18d4cb0bd4b909979920d489027c79097c7a087c7b0a7c7c0b979908d4a90997bb1097cc18d4cb0bd4b9097c7a0d7c7b0c7c7c0e7c780f97aa08d4ba0a97cc10978818d4c808d4a808978820d498037c78117c7a107c7b127c7c13978808d4a80897bb1097cc18d4cb0bd4b8087c7a157c7b147c7c167c791797aa08d4ba0a97cc10979918d4c909d4a909979920d4890a7c78197c79187c7b1a7c7c1b978808d4980897bb1097cc18d4cb0bd4b8087c791d7c7b1c7c7c1e7c771f979908d4b90997cc10977718d4c707d49707977720d487076f776fa86f396f2a7b5a187b59107b58087b57821008821595111032009511d87b10207b15187b161082897b19088289087b198285108286183308205020380209036f686f59821a6faa821b086fbb787b18787a10787908787898bc38787c1f98bc30787c1e98bc28787c1d98bc20787c1c98bc18787c1b98bc10787c1a98bb08787b1998ab38787b1798ab30787b1698ab28787b1598ab20787b1498ab18787b1398ab10787b1298aa08787a11989a38787a0f989a30787a0e989a28787a0d989a20787a0c989a18787a0b989a10787a0a98990878790998893878790798893078790698892878790598892078790498891878790398891078790298880878780182102082151882161095112832009511807b10787b15707b1668951580008411e06476828718828910828a0882886f776f996faa6f887b18587b1a507b19487b1740491138491130491128491120480120831840831a20831b3309ff33070a05821738821830821928821a206f776f886f996faa7b6a187b69107b68087b679551808210788215708216689511800032009511a07b10587b15509515608411e08272827a08827b108277188283828908828c108288186f746fbb6faa6f276f826fcc6f996f387b17387b1a307b1b287b14207b18187b19107b1c087b12831820831a3309ff330b2033070a0a9551a0821058821550951160320082186f888219086f99821a106faa821b186fbb7b1b587b1a507b19487b18408218206f888219286f99821a306faa821b386fbb7b1b787b1a707b19687b18608379836a8317403308020a04955160ff8210980082159000821688009511a0003200951120ff7b10d8007b15d0007b16c8009515e0008411e082bc7b1c4082bc087b1c4882bc107b1c5082bb187b1b5882ab7b1b1882ab087b1b2082ab107b1b2882aa187b1a308296829a087b1a829a107b1a088299187b19107b183850203c028d006f687b187882186f887b18708218086f887b18688218106f887b18608218186f887b1898008218206f887b1890008218286f887b1888008218306f887b1880008218406f887b18b8008218486f887b18b0008218506f887b18a8008218586f887b18a0008379811a388317603308030a04955120ff8210d8008215d0008216c8009511e00032008b7910520931c8780883881f8488e05638000001253309840002390a840002ae8a093d088400020133089000028377c887073200004969488424494a222524499a2449124aa9a424494a92102230444d14aa34222222224544908810222409a5914002020924202020909092904491242a459148249228894a91a44852442291880a119188904212214512214244444488d2484892244922128944a4101189082924118a925425499224a524422491104992244992880820222221252189221122222222220a1111121152082909911011914824120911111149922489449224124524a4242451241425898888424424228410522411224911222222a248241249922449498910111111110911222222222221424444442291482412894424128988202222224224922449922449922449224251092909491409454922229148440a1111890852104491201244442488888888244992241101444411242241140992281214258988241129888888444410044114910822124444444444444414114144049124499224898888888888888808a2249144924422494989082249000124a924228a4824918844221111412488209224a92422224924128944440491208200224929898828221111114144828888888888121111914824128944228944229114111111111191209224499224454444449224894424912449922429924082281224512429492241444444444444444444101191942449490a22414444444444444410a268244992244922a994a4241149248248124000492a89444444440449512349924aa22491481289208048524a221111118288888888288888440441904410452482882022222222884824298944114404111145229148924492a4a424252988082222228924914492929494a42029924812492492141144442429228248494492921441248888888888a4a89124254992244a1211110511452482a424111111111142081111118988882012449224499224124992488a48104582248a24254904118924491209228224124992488a48104582248a24483412894411248a0449519224494444444414111191888888888888888888205124488a92244922222292141111918844224944922411248a0449519224494444444411111189888888888888888820a24890142549924492242922129148922489482412512452440a22222211410a82281244828888888810258a480491244912111189442252101111890852104491204144444482888824499224220288888848104582248a4404111111111111111105111111121111a420882212412488884424221189248888888848922411894844222289288244506a521411d148922449125192888888084214452482a4241111111111218410111189121111410555890411119124492222028888482488888888244912110144440489a0a41145221129888844042948228822124192521241248888882449121125918888888820296a24490049459424111111442249124248928444241111112949929424498924221149442292444482888888242222129124494424224992882449922449124544444404451c119144922492242249922449922489242222222222051189244912892449924482224e2491244924499224892492442249922422222222824892248988442425922422894412918888442222882492482249924492244992249594884492482449121111111189880822228888208a2248a2a222494551141111894422220511119188085290441045248224a52422888888884824499224aa028891481289244922912489441249924824914492242949924445238924a948111111115110111189084112a52089208a480491a4882022922449444482884892a42445108988482422221241444444922431922449922422228088888844444444444444414444242282244a4112415192aa2449922849441011491249498a202241442449442249248988888808228848001140248a222222222222222282884814454404451c914424492292242249028854444444444410092091482492482412914444441411412449492a028888888888888888a02a12499224499200622492442249928a44442222222229221149924445238924a988244992448a2411111111114124124922894424912492484412492289444491a444a24849249124492489882411114492244944442412898844104024928a24499224114992244922920490a422124924924824914844822226514549221111494482342211499244124992882489482289244992244992244944522949494244444444841022228928222222222215941a4a15114044441124221111510011511011114a44042928894644449214914812491249929424494a92242529898888288848000920518a482291884490244a114924129108024894224992149144924412894444449048921411114d92a4d2248024a9949224490aa5281224499224499224499224912429498228699224294a92942449922449922449922449922449925292244992241a0a85a5281224499224499224499224912429498228699224294a92a424499224499224499224294992244992244992242949922449120d85c252b42449922449529292244190242508110c25d12449522a254912499224499220490a8224294188602889a6829420894a522551a5485292a22455499224492989aa944812492429495122492491a4241549922a495592242992549594a428495549492a892aa594a42425a92a925492442a2925512a4992244949544a52554902482a499294544a214225a952909224499224499224499224499224499224499224499224499224499224499224a94a524a49525292a02a2529499224499224499224499224499224499224499224494a924849aa4a922449522a49aa9294245192a42425a9aa4a9224a5a492a44a2925494a292549254544441111919224494992a49424094a252525458a142952a44891a2244544444992208484a11400","linkReferences":{}},"methodIdentifiers":{"commitWord(uint256,bytes32)":"41375582","createGame()":"7255d729","games(uint256)":"117a5b90","getGame(uint256)":"a2f77bcc","getPlayerWins(address)":"b74ae96c","joinGame(uint256)":"efaa55a0","nextGameId()":"b135bbb0","revealAndScore(uint256,string,string,address[],uint256[])":"b0622d99","totalWins(address)":"96e9b0e2"},"id":24}